{
  "abi": [
    {
      "type": "constructor",
      "inputs": [
        {
          "name": "_farmingToken",
          "type": "address",
          "internalType": "address"
        }
      ],
      "stateMutability": "nonpayable"
    },
    {
      "type": "receive",
      "stateMutability": "payable"
    },
    {
      "type": "function",
      "name": "claim",
      "inputs": [],
      "outputs": [],
      "stateMutability": "nonpayable"
    },
    {
      "type": "function",
      "name": "farmingToken",
      "inputs": [],
      "outputs": [
        {
          "name": "",
          "type": "address",
          "internalType": "contract IERC20"
        }
      ],
      "stateMutability": "view"
    },
    {
      "type": "function",
      "name": "getUserRewards",
      "inputs": [
        {
          "name": "user",
          "type": "address",
          "internalType": "address"
        }
      ],
      "outputs": [
        {
          "name": "",
          "type": "uint256",
          "internalType": "uint256"
        }
      ],
      "stateMutability": "view"
    },
    {
      "type": "function",
      "name": "lastTx",
      "inputs": [
        {
          "name": "",
          "type": "address",
          "internalType": "address"
        }
      ],
      "outputs": [
        {
          "name": "",
          "type": "uint256",
          "internalType": "uint256"
        }
      ],
      "stateMutability": "view"
    },
    {
      "type": "function",
      "name": "stake",
      "inputs": [
        {
          "name": "amount",
          "type": "uint256",
          "internalType": "uint256"
        }
      ],
      "outputs": [],
      "stateMutability": "nonpayable"
    },
    {
      "type": "function",
      "name": "stakersInfos",
      "inputs": [
        {
          "name": "",
          "type": "address",
          "internalType": "address"
        }
      ],
      "outputs": [
        {
          "name": "tokensStaked",
          "type": "uint256",
          "internalType": "uint256"
        },
        {
          "name": "accumulatedRewardsPerToken",
          "type": "uint256",
          "internalType": "uint256"
        }
      ],
      "stateMutability": "view"
    },
    {
      "type": "function",
      "name": "totalRewards",
      "inputs": [],
      "outputs": [
        {
          "name": "",
          "type": "uint256",
          "internalType": "uint256"
        }
      ],
      "stateMutability": "view"
    },
    {
      "type": "function",
      "name": "totalStaked",
      "inputs": [],
      "outputs": [
        {
          "name": "",
          "type": "uint256",
          "internalType": "uint256"
        }
      ],
      "stateMutability": "view"
    },
    {
      "type": "function",
      "name": "unstake",
      "inputs": [
        {
          "name": "amount",
          "type": "uint256",
          "internalType": "uint256"
        }
      ],
      "outputs": [],
      "stateMutability": "nonpayable"
    },
    {
      "type": "event",
      "name": "TokenStaked",
      "inputs": [
        {
          "name": "user",
          "type": "address",
          "indexed": true,
          "internalType": "address"
        },
        {
          "name": "amount",
          "type": "uint256",
          "indexed": false,
          "internalType": "uint256"
        },
        {
          "name": "accumulatedRewardsPerToken",
          "type": "uint256",
          "indexed": false,
          "internalType": "uint256"
        }
      ],
      "anonymous": false
    },
    {
      "type": "event",
      "name": "TokenUnstaked",
      "inputs": [
        {
          "name": "user",
          "type": "address",
          "indexed": true,
          "internalType": "address"
        },
        {
          "name": "amount",
          "type": "uint256",
          "indexed": false,
          "internalType": "uint256"
        },
        {
          "name": "accumulatedRewardsPerToken",
          "type": "uint256",
          "indexed": false,
          "internalType": "uint256"
        }
      ],
      "anonymous": false
    }
  ],
  "bytecode": {
    "object": "0x6080604052600160035534801561001557600080fd5b506040516109a23803806109a283398101604081905261003491610059565b600080546001600160a01b0319166001600160a01b0392909216919091179055610089565b60006020828403121561006b57600080fd5b81516001600160a01b038116811461008257600080fd5b9392505050565b61090a806100986000396000f3fe60806040526004361061008a5760003560e01c80637931cef5116100595780637931cef5146101ac578063817b1cd2146101f5578063a62b48ce1461020b578063a694fc3a14610238578063ad24dce71461025857600080fd5b8063078b0fb71461012c5780630e15561a1461015f5780632e17de78146101755780634e71d92d1461019757600080fd5b36610127576001546000036100d35760405162461bcd60e51b815260206004820152600a6024820152694e6f207374616b65727360b01b60448201526064015b60405180910390fd5b6001546000906100e864e8d4a51000346107de565b6100f291906107fb565b90508060036000828254610106919061081d565b92505081905550346002600082825461011f919061081d565b925050819055005b600080fd5b34801561013857600080fd5b5061014c610147366004610830565b610290565b6040519081526020015b60405180910390f35b34801561016b57600080fd5b5061014c60025481565b34801561018157600080fd5b50610195610190366004610860565b6102fa565b005b3480156101a357600080fd5b506101956104f5565b3480156101b857600080fd5b506101e06101c7366004610830565b6004602052600090815260409020805460019091015482565b60408051928352602083019190915201610156565b34801561020157600080fd5b5061014c60015481565b34801561021757600080fd5b5061014c610226366004610830565b60056020526000908152604090205481565b34801561024457600080fd5b50610195610253366004610860565b61054b565b34801561026457600080fd5b50600054610278906001600160a01b031681565b6040516001600160a01b039091168152602001610156565b6001600160a01b03811660009081526004602052604081206001015460035482916102ba91610879565b6001600160a01b0384166000908152600460205260408120549192509064e8d4a51000906102e890846107de565b6102f291906107fb565b949350505050565b336000818152600560205260409020544390036103295760405162461bcd60e51b81526004016100ca9061088c565b6001600160a01b03811660009081526005602052604090204390553382158061036857506001600160a01b038116600090815260046020526040902054155b1561037257505050565b61037b816106e5565b6001600160a01b0381166000908152600460205260409020548311156103e35760405162461bcd60e51b815260206004820152601860248201527f4e6f7420656e6f756768207374616b656420746f6b656e73000000000000000060448201526064016100ca565b6001600160a01b0381166000908152600460205260408120805485929061040b908490610879565b9250508190555082600160008282546104249190610879565b909155505060005460405163a9059cbb60e01b81526001600160a01b038381166004830152602482018690529091169063a9059cbb906044016020604051808303816000875af115801561047c573d6000803e3d6000fd5b505050506040513d601f19601f820116820180604052508101906104a091906108b2565b50806001600160a01b03167f563fc70fca9d440d883299c76a721644d5aca7c45df98aeb5292c4cb823579bf846003546040516104e7929190918252602082015260400190565b60405180910390a2505b5050565b336000818152600560205260409020544390036105245760405162461bcd60e51b81526004016100ca9061088c565b6001600160a01b0381166000908152600560205260409020439055610548336106e5565b50565b3360008181526005602052604090205443900361057a5760405162461bcd60e51b81526004016100ca9061088c565b6001600160a01b038116600090815260056020526040902043905581156104f1573360008181526004602052604081205490036105d5576003546001600160a01b0382166000908152600460205260409020600101556105de565b6105de816106e5565b6000546040516323b872dd60e01b81526001600160a01b03838116600483015230602483015260448201869052909116906323b872dd906064016020604051808303816000875af1158015610637573d6000803e3d6000fd5b505050506040513d601f19601f8201168201806040525081019061065b91906108b2565b50826001600082825461066e919061081d565b90915550506001600160a01b0381166000908152600460205260408120805485929061069b90849061081d565b90915550506003546040516001600160a01b038316917f6173e4d2d9dd52aae0ed37afed3adcf924a490639b759ca93d32dc43366c17d2916104e791878252602082015260400190565b60006106f082610290565b6003546001600160a01b038416600090815260046020526040812060010191909155909150819003610720575050565b6000826001600160a01b03168260405160006040518083038185875af1925050503d806000811461076d576040519150601f19603f3d011682016040523d82523d6000602084013e610772565b606091505b50509050806107c35760405162461bcd60e51b815260206004820152601760248201527f556e61626c6520746f20636c61696d207265776172647300000000000000000060448201526064016100ca565b505050565b634e487b7160e01b600052601160045260246000fd5b80820281158282048414176107f5576107f56107c8565b92915050565b60008261081857634e487b7160e01b600052601260045260246000fd5b500490565b808201808211156107f5576107f56107c8565b60006020828403121561084257600080fd5b81356001600160a01b038116811461085957600080fd5b9392505050565b60006020828403121561087257600080fd5b5035919050565b818103818111156107f5576107f56107c8565b6020808252600c908201526b155cd95c88189b1bd8dad95960a21b604082015260600190565b6000602082840312156108c457600080fd5b8151801515811461085957600080fdfea2646970667358221220a54bc8802ae3b2396a73e2759d14fc610c41702fc993e9a9e5e7cdfd35ca7d7664736f6c63430008180033",
    "linkReferences": {}
  },
  "methodIdentifiers": {
    "claim()": "4e71d92d",
    "farmingToken()": "ad24dce7",
    "getUserRewards(address)": "078b0fb7",
    "lastTx(address)": "a62b48ce",
    "stake(uint256)": "a694fc3a",
    "stakersInfos(address)": "7931cef5",
    "totalRewards()": "0e15561a",
    "totalStaked()": "817b1cd2",
    "unstake(uint256)": "2e17de78"
  },
  "id": 27
}