{"abi":[{"type":"constructor","inputs":[{"name":"_tokenFactory","type":"address","internalType":"address"}],"stateMutability":"nonpayable"},{"type":"receive","stateMutability":"payable"},{"type":"function","name":"MAX_TX_AMOUNT","inputs":[],"outputs":[{"name":"","type":"uint256","internalType":"uint256"}],"stateMutability":"view"},{"type":"function","name":"MAX_WALLET_AMOUNT","inputs":[],"outputs":[{"name":"","type":"uint256","internalType":"uint256"}],"stateMutability":"view"},{"type":"function","name":"WETH","inputs":[],"outputs":[{"name":"","type":"address","internalType":"address"}],"stateMutability":"view"},{"type":"function","name":"allowance","inputs":[{"name":"owner","type":"address","internalType":"address"},{"name":"spender","type":"address","internalType":"address"}],"outputs":[{"name":"","type":"uint256","internalType":"uint256"}],"stateMutability":"view"},{"type":"function","name":"approve","inputs":[{"name":"spender","type":"address","internalType":"address"},{"name":"amount","type":"uint256","internalType":"uint256"}],"outputs":[{"name":"","type":"bool","internalType":"bool"}],"stateMutability":"nonpayable"},{"type":"function","name":"balanceOf","inputs":[{"name":"account","type":"address","internalType":"address"}],"outputs":[{"name":"","type":"uint256","internalType":"uint256"}],"stateMutability":"view"},{"type":"function","name":"burn","inputs":[{"name":"value","type":"uint256","internalType":"uint256"}],"outputs":[],"stateMutability":"nonpayable"},{"type":"function","name":"decimals","inputs":[],"outputs":[{"name":"","type":"uint8","internalType":"uint8"}],"stateMutability":"view"},{"type":"function","name":"decreaseAllowance","inputs":[{"name":"spender","type":"address","internalType":"address"},{"name":"subtractedValue","type":"uint256","internalType":"uint256"}],"outputs":[{"name":"","type":"bool","internalType":"bool"}],"stateMutability":"nonpayable"},{"type":"function","name":"deployer","inputs":[],"outputs":[{"name":"","type":"address","internalType":"address payable"}],"stateMutability":"view"},{"type":"function","name":"feesTier","inputs":[],"outputs":[{"name":"","type":"uint8","internalType":"enum ITokenLogic.FeesTier"}],"stateMutability":"view"},{"type":"function","name":"increaseAllowance","inputs":[{"name":"spender","type":"address","internalType":"address"},{"name":"addedValue","type":"uint256","internalType":"uint256"}],"outputs":[{"name":"","type":"bool","internalType":"bool"}],"stateMutability":"nonpayable"},{"type":"function","name":"initialize","inputs":[{"name":"_deployer","type":"address","internalType":"address"},{"name":"_name","type":"string","internalType":"string"},{"name":"_symbol","type":"string","internalType":"string"}],"outputs":[],"stateMutability":"payable"},{"type":"function","name":"launchTimestamp","inputs":[],"outputs":[{"name":"","type":"uint256","internalType":"uint256"}],"stateMutability":"view"},{"type":"function","name":"limitsActive","inputs":[],"outputs":[{"name":"","type":"bool","internalType":"bool"}],"stateMutability":"view"},{"type":"function","name":"name","inputs":[],"outputs":[{"name":"","type":"string","internalType":"string"}],"stateMutability":"view"},{"type":"function","name":"symbol","inputs":[],"outputs":[{"name":"","type":"string","internalType":"string"}],"stateMutability":"view"},{"type":"function","name":"tokenFactory","inputs":[],"outputs":[{"name":"","type":"address","internalType":"address"}],"stateMutability":"view"},{"type":"function","name":"totalSupply","inputs":[],"outputs":[{"name":"","type":"uint256","internalType":"uint256"}],"stateMutability":"view"},{"type":"function","name":"transfer","inputs":[{"name":"recipient","type":"address","internalType":"address"},{"name":"amount","type":"uint256","internalType":"uint256"}],"outputs":[{"name":"","type":"bool","internalType":"bool"}],"stateMutability":"nonpayable"},{"type":"function","name":"transferFrom","inputs":[{"name":"sender","type":"address","internalType":"address"},{"name":"recipient","type":"address","internalType":"address"},{"name":"amount","type":"uint256","internalType":"uint256"}],"outputs":[{"name":"","type":"bool","internalType":"bool"}],"stateMutability":"nonpayable"},{"type":"function","name":"uniswapFactory","inputs":[],"outputs":[{"name":"","type":"address","internalType":"contract IUniswapV2Factory"}],"stateMutability":"view"},{"type":"function","name":"uniswapPair","inputs":[],"outputs":[{"name":"","type":"address","internalType":"address"}],"stateMutability":"view"},{"type":"event","name":"Approval","inputs":[{"name":"owner","type":"address","indexed":true,"internalType":"address"},{"name":"spender","type":"address","indexed":true,"internalType":"address"},{"name":"value","type":"uint256","indexed":false,"internalType":"uint256"}],"anonymous":false},{"type":"event","name":"Transfer","inputs":[{"name":"from","type":"address","indexed":true,"internalType":"address"},{"name":"to","type":"address","indexed":true,"internalType":"address"},{"name":"value","type":"uint256","indexed":false,"internalType":"uint256"}],"anonymous":false}],"bytecode":{"object":"0x60e06040523480156200001157600080fd5b5060405162001d8e38038062001d8e83398101604081905262000034916200014e565b6001600160a01b0381166080526040805163c45a015560e01b81529051737a250d5630b4cf539739df2c5dacb4c659f2488d9163c45a01559160048083019260209291908290030181865afa15801562000092573d6000803e3d6000fd5b505050506040513d601f19601f82011682018060405250810190620000b891906200014e565b6001600160a01b031660c052604080516315ab88c960e31b81529051737a250d5630b4cf539739df2c5dacb4c659f2488d9163ad5c46489160048083019260209291908290030181865afa15801562000115573d6000803e3d6000fd5b505050506040513d601f19601f820116820180604052508101906200013b91906200014e565b6001600160a01b031660a0525062000180565b6000602082840312156200016157600080fd5b81516001600160a01b03811681146200017957600080fd5b9392505050565b60805160a05160c051611b9f620001ef60003960008181610318015261081a0152600081816103cc015281816107f2015281816108ce015281816109750152611446015260008181610486015281816106a901528181610a0e01528181611107015261154a0152611b9f6000f3fe6080604052600436106101445760003560e01c80637e0ec1d1116100b6578063a9059cbb1161006f578063a9059cbb1461039a578063ad5c4648146103ba578063c816841b146103ee578063d5f394881461040e578063dd62ed3e1461042e578063e77772fe1461047457600080fd5b80637e0ec1d1146102dc5780638ae2702f146102f15780638bdb2afa14610306578063906571471461035257806395d89b4114610365578063a457c2d71461037a57600080fd5b8063313ce56711610108578063313ce5671461020457806339509351146102205780633d3f4eb01461024057806342966c681461026e57806365cf7c9b1461029057806370a08231146102a657600080fd5b806306fdde0314610150578063095ea7b31461017b57806318160ddd146101ab5780631cce34ee146101cf57806323b872dd146101e457600080fd5b3661014b57005b600080fd5b34801561015c57600080fd5b506101656104a8565b604051610172919061161c565b60405180910390f35b34801561018757600080fd5b5061019b610196366004611680565b610536565b6040519015158152602001610172565b3480156101b757600080fd5b506101c160025481565b604051908152602001610172565b3480156101db57600080fd5b5061019b61054d565b3480156101f057600080fd5b5061019b6101ff3660046116ac565b610567565b34801561021057600080fd5b5060405160128152602001610172565b34801561022c57600080fd5b5061019b61023b366004611680565b610618565b34801561024c57600080fd5b5060085461026190600160a01b900460ff1681565b6040516101729190611703565b34801561027a57600080fd5b5061028e61028936600461172b565b610654565b005b34801561029c57600080fd5b506101c160065481565b3480156102b257600080fd5b506101c16102c1366004611744565b6001600160a01b031660009081526020819052604090205490565b3480156102e857600080fd5b506101c1610661565b3480156102fd57600080fd5b506101c1610686565b34801561031257600080fd5b5061033a7f000000000000000000000000000000000000000000000000000000000000000081565b6040516001600160a01b039091168152602001610172565b61028e610360366004611804565b61069e565b34801561037157600080fd5b50610165610a8a565b34801561038657600080fd5b5061019b610395366004611680565b610a97565b3480156103a657600080fd5b5061019b6103b5366004611680565b610b30565b3480156103c657600080fd5b5061033a7f000000000000000000000000000000000000000000000000000000000000000081565b3480156103fa57600080fd5b5060085461033a906001600160a01b031681565b34801561041a57600080fd5b5060075461033a906001600160a01b031681565b34801561043a57600080fd5b506101c161044936600461187a565b6001600160a01b03918216600090815260016020908152604080832093909416825291909152205490565b34801561048057600080fd5b5061033a7f000000000000000000000000000000000000000000000000000000000000000081565b600380546104b5906118b3565b80601f01602080910402602001604051908101604052809291908181526020018280546104e1906118b3565b801561052e5780601f106105035761010080835404028352916020019161052e565b820191906000526020600020905b81548152906001019060200180831161051157829003601f168201915b505050505081565b6000610543338484610b3d565b5060015b92915050565b600061012c600654426105609190611903565b1115905090565b6000610574848484610c62565b6001600160a01b0384166000908152600160209081526040808320338452909152902054828110156105fe5760405162461bcd60e51b815260206004820152602860248201527f45524332303a207472616e7366657220616d6f756e74206578636565647320616044820152676c6c6f77616e636560c01b60648201526084015b60405180910390fd5b61060b8533858403610b3d565b60019150505b9392505050565b3360008181526001602090815260408083206001600160a01b0387168452909152812054909161054391859061064f908690611916565b610b3d565b61065e3382610cdc565b50565b6064610679676765c793fa10079d601b1b6003611929565b6106839190611940565b81565b6064610679676765c793fa10079d601b1b6001611929565b336001600160a01b037f000000000000000000000000000000000000000000000000000000000000000016146107055760405162461bcd60e51b815260206004820152600c60248201526b155b985d5d1a1bdc9a5e995960a21b60448201526064016105f5565b34670de0b6b3a76400001461075c5760405162461bcd60e51b815260206004820152601760248201527f57726f6e6720696e697469616c206c697175696469747900000000000000000060448201526064016105f5565b600361076883826119b2565b50600461077582826119b2565b50600780546001600160a01b0319166001600160a01b038516179055426006556107d53060646107b1676765c793fa10079d601b1b6050611929565b6107bb9190611940565b6107d090676765c793fa10079d601b1b611903565b610e22565b6040516364e329cb60e11b81523060048201526001600160a01b037f0000000000000000000000000000000000000000000000000000000000000000811660248301527f0000000000000000000000000000000000000000000000000000000000000000169063c9c65396906044016020604051808303816000875af1158015610863573d6000803e3d6000fd5b505050506040513d601f19601f820116820180604052508101906108879190611a72565b600880546001600160a01b0319166001600160a01b039290921691821790556108cc9060646108c2676765c793fa10079d601b1b6050611929565b6107d09190611940565b7f00000000000000000000000000000000000000000000000000000000000000006001600160a01b031663d0e30db0670de0b6b3a76400006040518263ffffffff1660e01b81526004016000604051808303818588803b15801561092f57600080fd5b505af1158015610943573d6000803e3d6000fd5b505060085460405163a9059cbb60e01b81526001600160a01b039182166004820152670de0b6b3a764000060248201527f0000000000000000000000000000000000000000000000000000000000000000909116935063a9059cbb925060440190506020604051808303816000875af11580156109c4573d6000803e3d6000fd5b505050506040513d601f19601f820116820180604052508101906109e89190611a8f565b6109f4576109f4611ab1565b6008546040516335313c2160e11b81526001600160a01b037f00000000000000000000000000000000000000000000000000000000000000008116600483015290911690636a627842906024016020604051808303816000875af1158015610a60573d6000803e3d6000fd5b505050506040513d601f19601f82011682018060405250810190610a849190611ac7565b50505050565b600480546104b5906118b3565b3360009081526001602090815260408083206001600160a01b038616845290915281205482811015610b195760405162461bcd60e51b815260206004820152602560248201527f45524332303a2064656372656173656420616c6c6f77616e63652062656c6f77604482015264207a65726f60d81b60648201526084016105f5565b610b263385858403610b3d565b5060019392505050565b6000610543338484610c62565b6001600160a01b038316610b9f5760405162461bcd60e51b8152602060048201526024808201527f45524332303a20617070726f76652066726f6d20746865207a65726f206164646044820152637265737360e01b60648201526084016105f5565b6001600160a01b038216610c005760405162461bcd60e51b815260206004820152602260248201527f45524332303a20617070726f766520746f20746865207a65726f206164647265604482015261737360f01b60648201526084016105f5565b6001600160a01b0383811660008181526001602090815260408083209487168084529482529182902085905590518481527f8c5be1e5ebec7d5bd14f71427d1e84f3dd0314c0f7b2291e5b200ac8c7c3b92591015b60405180910390a3505050565b60055460ff1615610c7d57610c78838383610f01565b505050565b6000610c8a8484846110d0565b90508015610caa57610c9d843083610f01565b610ca78183611903565b91505b6008546001600160a01b0390811690841603610cc957610cc98261138e565b610cd4848484610f01565b610a84611539565b6001600160a01b038216610d3c5760405162461bcd60e51b815260206004820152602160248201527f45524332303a206275726e2066726f6d20746865207a65726f206164647265736044820152607360f81b60648201526084016105f5565b6001600160a01b03821660009081526020819052604090205481811015610db05760405162461bcd60e51b815260206004820152602260248201527f45524332303a206275726e20616d6f756e7420657863656564732062616c616e604482015261636560f01b60648201526084016105f5565b6001600160a01b0383166000908152602081905260408120838303905560028054849290610ddf908490611903565b90915550506040518281526000906001600160a01b038516907fddf252ad1be2c89b69c2b068fc378daa952ba7f163c4a11628f55a4df523b3ef90602001610c55565b6001600160a01b038216610e785760405162461bcd60e51b815260206004820152601f60248201527f45524332303a206d696e7420746f20746865207a65726f20616464726573730060448201526064016105f5565b8060026000828254610e8a9190611916565b90915550506001600160a01b03821660009081526020819052604081208054839290610eb7908490611916565b90915550506040518181526001600160a01b038316906000907fddf252ad1be2c89b69c2b068fc378daa952ba7f163c4a11628f55a4df523b3ef9060200160405180910390a35050565b6001600160a01b038316610f655760405162461bcd60e51b815260206004820152602560248201527f45524332303a207472616e736665722066726f6d20746865207a65726f206164604482015264647265737360d81b60648201526084016105f5565b6001600160a01b038216610fc75760405162461bcd60e51b815260206004820152602360248201527f45524332303a207472616e7366657220746f20746865207a65726f206164647260448201526265737360e81b60648201526084016105f5565b6001600160a01b0383166000908152602081905260409020548181101561103f5760405162461bcd60e51b815260206004820152602660248201527f45524332303a207472616e7366657220616d6f756e7420657863656564732062604482015265616c616e636560d01b60648201526084016105f5565b6001600160a01b03808516600090815260208190526040808220858503905591851681529081208054849290611076908490611916565b92505081905550826001600160a01b0316846001600160a01b03167fddf252ad1be2c89b69c2b068fc378daa952ba7f163c4a11628f55a4df523b3ef846040516110c291815260200190565b60405180910390a350505050565b6008546000906001600160a01b038581169116148015906110ff57506008546001600160a01b03848116911614155b8061113b57507f00000000000000000000000000000000000000000000000000000000000000006001600160a01b0316836001600160a01b0316145b8061114e57506001600160a01b03841630145b8061117557506001600160a01b038316737a250d5630b4cf539739df2c5dacb4c659f2488d145b1561118257506000610611565b61118a61054d565b80156111a357506008546001600160a01b038581169116145b156112ab5760646111c0676765c793fa10079d601b1b6001611929565b6111ca9190611940565b8211156112115760405162461bcd60e51b815260206004820152601560248201527413585e081d1e08185b5bdd5b9d081c995858da1959605a1b60448201526064016105f5565b6064611229676765c793fa10079d601b1b6003611929565b6112339190611940565b82611253856001600160a01b031660009081526020819052604090205490565b61125d9190611916565b11156112ab5760405162461bcd60e51b815260206004820152601960248201527f4d61782077616c6c657420616d6f756e7420726561636865640000000000000060448201526064016105f5565b6002600854600160a01b900460ff1660028111156112cb576112cb6116ed565b036112d857506000610611565b6001600854600160a01b900460ff1660028111156112f8576112f86116ed565b0361134e57606460025461130c9190611940565b306000908152602081905260409020541161133c57506008805460ff60a01b1916600160a11b1790556000610611565b611347601483611940565b9050610611565b61012c6006544261135f9190611903565b1115611383576008805460ff60a01b1916600160a01b179055611347601483611940565b611347600583611940565b6005805460ff1916600117905560006113d76113c8836113c3306001600160a01b031660009081526020819052604090205490565b611606565b60646002546113c39190611940565b9050670de0b6b3a76400008110156113ef575061152c565b604080516002808252606082018352600092602083019080368337019050509050308160008151811061142457611424611ae0565b60200260200101906001600160a01b031690816001600160a01b0316815250507f00000000000000000000000000000000000000000000000000000000000000008160018151811061147857611478611ae0565b60200260200101906001600160a01b031690816001600160a01b0316815250506114b730737a250d5630b4cf539739df2c5dacb4c659f2488d84610b3d565b60405163791ac94760e01b8152737a250d5630b4cf539739df2c5dacb4c659f2488d9063791ac947906114f7908590600090869030904290600401611af6565b600060405180830381600087803b15801561151157600080fd5b505af1158015611525573d6000803e3d6000fd5b5050505050505b506005805460ff19169055565b4760008190036115465750565b60007f00000000000000000000000000000000000000000000000000000000000000006001600160a01b03168260405160006040518083038185875af1925050503d80600081146115b3576040519150601f19603f3d011682016040523d82523d6000602084013e6115b8565b606091505b50509050806116025760405162461bcd60e51b81526020600482015260166024820152754661696c656420746f20666f7277617264206665657360501b60448201526064016105f5565b5050565b60008183106116155781610611565b5090919050565b60006020808352835180602085015260005b8181101561164a5785810183015185820160400152820161162e565b506000604082860101526040601f19601f8301168501019250505092915050565b6001600160a01b038116811461065e57600080fd5b6000806040838503121561169357600080fd5b823561169e8161166b565b946020939093013593505050565b6000806000606084860312156116c157600080fd5b83356116cc8161166b565b925060208401356116dc8161166b565b929592945050506040919091013590565b634e487b7160e01b600052602160045260246000fd5b602081016003831061172557634e487b7160e01b600052602160045260246000fd5b91905290565b60006020828403121561173d57600080fd5b5035919050565b60006020828403121561175657600080fd5b81356106118161166b565b634e487b7160e01b600052604160045260246000fd5b600082601f83011261178857600080fd5b813567ffffffffffffffff808211156117a3576117a3611761565b604051601f8301601f19908116603f011681019082821181831017156117cb576117cb611761565b816040528381528660208588010111156117e457600080fd5b836020870160208301376000602085830101528094505050505092915050565b60008060006060848603121561181957600080fd5b83356118248161166b565b9250602084013567ffffffffffffffff8082111561184157600080fd5b61184d87838801611777565b9350604086013591508082111561186357600080fd5b5061187086828701611777565b9150509250925092565b6000806040838503121561188d57600080fd5b82356118988161166b565b915060208301356118a88161166b565b809150509250929050565b600181811c908216806118c757607f821691505b6020821081036118e757634e487b7160e01b600052602260045260246000fd5b50919050565b634e487b7160e01b600052601160045260246000fd5b81810381811115610547576105476118ed565b80820180821115610547576105476118ed565b8082028115828204841417610547576105476118ed565b60008261195d57634e487b7160e01b600052601260045260246000fd5b500490565b601f821115610c78576000816000526020600020601f850160051c8101602086101561198b5750805b601f850160051c820191505b818110156119aa57828155600101611997565b505050505050565b815167ffffffffffffffff8111156119cc576119cc611761565b6119e0816119da84546118b3565b84611962565b602080601f831160018114611a1557600084156119fd5750858301515b600019600386901b1c1916600185901b1785556119aa565b600085815260208120601f198616915b82811015611a4457888601518255948401946001909101908401611a25565b5085821015611a625787850151600019600388901b60f8161c191681555b5050505050600190811b01905550565b600060208284031215611a8457600080fd5b81516106118161166b565b600060208284031215611aa157600080fd5b8151801515811461061157600080fd5b634e487b7160e01b600052600160045260246000fd5b600060208284031215611ad957600080fd5b5051919050565b634e487b7160e01b600052603260045260246000fd5b600060a08201878352602087602085015260a0604085015281875180845260c08601915060208901935060005b81811015611b485784516001600160a01b031683529383019391830191600101611b23565b50506001600160a01b0396909616606085015250505060800152939250505056fea26469706673582212203edff8b824375d803e7a760070fa238f9dfeee297357fcf7f1d98f9b22732eee64736f6c63430008180033","linkReferences":{}},"methodIdentifiers":{"MAX_TX_AMOUNT()":"8ae2702f","MAX_WALLET_AMOUNT()":"7e0ec1d1","WETH()":"ad5c4648","allowance(address,address)":"dd62ed3e","approve(address,uint256)":"095ea7b3","balanceOf(address)":"70a08231","burn(uint256)":"42966c68","decimals()":"313ce567","decreaseAllowance(address,uint256)":"a457c2d7","deployer()":"d5f39488","feesTier()":"3d3f4eb0","increaseAllowance(address,uint256)":"39509351","initialize(address,string,string)":"90657147","launchTimestamp()":"65cf7c9b","limitsActive()":"1cce34ee","name()":"06fdde03","symbol()":"95d89b41","tokenFactory()":"e77772fe","totalSupply()":"18160ddd","transfer(address,uint256)":"a9059cbb","transferFrom(address,address,uint256)":"23b872dd","uniswapFactory()":"8bdb2afa","uniswapPair()":"c816841b"},"id":25}