{
  "abi": [
    {
      "type": "constructor",
      "inputs": [
        {
          "name": "_protocolFeesRecipient",
          "type": "address",
          "internalType": "address"
        }
      ],
      "stateMutability": "nonpayable"
    },
    {
      "type": "receive",
      "stateMutability": "payable"
    },
    {
      "type": "function",
      "name": "childTokens",
      "inputs": [
        {
          "name": "",
          "type": "address",
          "internalType": "address"
        }
      ],
      "outputs": [
        {
          "name": "isChildToken",
          "type": "bool",
          "internalType": "bool"
        },
        {
          "name": "uniqueId",
          "type": "uint256",
          "internalType": "uint256"
        },
        {
          "name": "launchStatus",
          "type": "uint8",
          "internalType": "enum ITokenFactory.LaunchStatus"
        },
        {
          "name": "feesReceived",
          "type": "uint256",
          "internalType": "uint256"
        }
      ],
      "stateMutability": "view"
    },
    {
      "type": "function",
      "name": "deployToken",
      "inputs": [
        {
          "name": "_name",
          "type": "string",
          "internalType": "string"
        },
        {
          "name": "_symbol",
          "type": "string",
          "internalType": "string"
        }
      ],
      "outputs": [
        {
          "name": "",
          "type": "address",
          "internalType": "address"
        }
      ],
      "stateMutability": "payable"
    },
    {
      "type": "function",
      "name": "externalTryBurn",
      "inputs": [
        {
          "name": "token",
          "type": "address",
          "internalType": "address"
        }
      ],
      "outputs": [],
      "stateMutability": "nonpayable"
    },
    {
      "type": "function",
      "name": "getChildTokenFees",
      "inputs": [
        {
          "name": "token",
          "type": "address",
          "internalType": "contract ITokenLogic"
        }
      ],
      "outputs": [
        {
          "name": "",
          "type": "uint8",
          "internalType": "uint8"
        }
      ],
      "stateMutability": "view"
    },
    {
      "type": "function",
      "name": "getTokenData",
      "inputs": [
        {
          "name": "token",
          "type": "address",
          "internalType": "contract ITokenLogic"
        }
      ],
      "outputs": [
        {
          "name": "",
          "type": "uint256",
          "internalType": "uint256"
        },
        {
          "name": "",
          "type": "uint8",
          "internalType": "enum ITokenFactory.LaunchStatus"
        }
      ],
      "stateMutability": "view"
    },
    {
      "type": "function",
      "name": "getTokenFees",
      "inputs": [
        {
          "name": "token",
          "type": "address",
          "internalType": "address"
        }
      ],
      "outputs": [
        {
          "name": "deployerFees",
          "type": "uint256",
          "internalType": "uint256"
        },
        {
          "name": "protocolFees",
          "type": "uint256",
          "internalType": "uint256"
        }
      ],
      "stateMutability": "view"
    },
    {
      "type": "function",
      "name": "getTokenUniqueId",
      "inputs": [
        {
          "name": "token",
          "type": "address",
          "internalType": "address"
        }
      ],
      "outputs": [
        {
          "name": "",
          "type": "bytes32",
          "internalType": "bytes32"
        }
      ],
      "stateMutability": "view"
    },
    {
      "type": "function",
      "name": "getTokensDeployed",
      "inputs": [
        {
          "name": "deployer",
          "type": "address",
          "internalType": "address"
        }
      ],
      "outputs": [
        {
          "name": "",
          "type": "address[]",
          "internalType": "address[]"
        }
      ],
      "stateMutability": "view"
    },
    {
      "type": "function",
      "name": "protocolFeesRecipient",
      "inputs": [],
      "outputs": [
        {
          "name": "",
          "type": "address",
          "internalType": "address payable"
        }
      ],
      "stateMutability": "view"
    },
    {
      "type": "function",
      "name": "setProtocolFeesRecipient",
      "inputs": [
        {
          "name": "_protocolFeesRecipient",
          "type": "address",
          "internalType": "address payable"
        }
      ],
      "outputs": [],
      "stateMutability": "nonpayable"
    },
    {
      "type": "function",
      "name": "tokenLogic",
      "inputs": [],
      "outputs": [
        {
          "name": "",
          "type": "address",
          "internalType": "address"
        }
      ],
      "stateMutability": "view"
    },
    {
      "type": "function",
      "name": "tokensDeployed",
      "inputs": [
        {
          "name": "",
          "type": "address",
          "internalType": "address"
        },
        {
          "name": "",
          "type": "uint256",
          "internalType": "uint256"
        }
      ],
      "outputs": [
        {
          "name": "",
          "type": "address",
          "internalType": "address"
        }
      ],
      "stateMutability": "view"
    },
    {
      "type": "function",
      "name": "uniqueId",
      "inputs": [],
      "outputs": [
        {
          "name": "",
          "type": "uint256",
          "internalType": "uint256"
        }
      ],
      "stateMutability": "view"
    },
    {
      "type": "function",
      "name": "withdrawLiquidity",
      "inputs": [
        {
          "name": "token",
          "type": "address",
          "internalType": "address"
        }
      ],
      "outputs": [],
      "stateMutability": "nonpayable"
    },
    {
      "type": "function",
      "name": "withdrawalAddresses",
      "inputs": [
        {
          "name": "",
          "type": "address",
          "internalType": "address"
        }
      ],
      "outputs": [
        {
          "name": "",
          "type": "bool",
          "internalType": "bool"
        }
      ],
      "stateMutability": "view"
    },
    {
      "type": "event",
      "name": "LiquidityBurned",
      "inputs": [
        {
          "name": "token",
          "type": "address",
          "indexed": true,
          "internalType": "address"
        }
      ],
      "anonymous": false
    },
    {
      "type": "event",
      "name": "LiquidityRefunded",
      "inputs": [
        {
          "name": "token",
          "type": "address",
          "indexed": true,
          "internalType": "address"
        }
      ],
      "anonymous": false
    },
    {
      "type": "event",
      "name": "TokenCreated",
      "inputs": [
        {
          "name": "token",
          "type": "address",
          "indexed": true,
          "internalType": "address"
        },
        {
          "name": "deployer",
          "type": "address",
          "indexed": true,
          "internalType": "address"
        },
        {
          "name": "name",
          "type": "string",
          "indexed": false,
          "internalType": "string"
        },
        {
          "name": "symbol",
          "type": "string",
          "indexed": false,
          "internalType": "string"
        }
      ],
      "anonymous": false
    }
  ],
  "bytecode": {
    "object": "0x60c060405261800160ed1b6000553480156200001a57600080fd5b5060405162003a7838038062003a788339810160408190526200003d916200013a565b600180546001600160a01b0319166001600160a01b038316179055604051309062000068906200012c565b6001600160a01b039091168152602001604051809103906000f08015801562000095573d6000803e3d6000fd5b506001600160a01b03166080526040805163c45a015560e01b81529051737a250d5630b4cf539739df2c5dacb4c659f2488d9163c45a01559160048083019260209291908290030181865afa158015620000f3573d6000803e3d6000fd5b505050506040513d601f19601f820116820180604052508101906200011991906200013a565b6001600160a01b031660a052506200016c565b611d8e8062001cea83390190565b6000602082840312156200014d57600080fd5b81516001600160a01b03811681146200016557600080fd5b9392505050565b60805160a051611b4a620001a06000396000818161054f0152610fd401526000818161047c015261145e0152611b4a6000f3fe6080604052600436106100ec5760003560e01c8063689306371161008a5780639d67ac37116100595780639d67ac371461042a578063ca4419331461044a578063d77177501461046a578063f0685ef41461049e57600080fd5b8063689306371461037d5780637a72f06f1461039d5780637df32647146103bd5780637e051867146103ea57600080fd5b80632c078476116100c65780632c078476146102b957806352c3e349146102eb578063629c52a91461033257806365436cd81461034857600080fd5b806313ff7e9f146101fc5780631d12b93814610233578063200952b11461025e57600080fd5b366101f75733737a250d5630b4cf539739df2c5dacb4c659f2488c19810161011057005b6001600160a01b03811660009081526002602052604090205460ff166101515760405162461bcd60e51b8152600401610148906114fc565b60405180910390fd5b6001600160a01b0381166000908152600260205260408120600301805434929061017c908490611539565b909155506000905061018d826104be565b9050801580156101cb57506001600160a01b0382166000908152600260208190526040822081015460ff16908111156101c8576101c861154c565b14155b156101f55760006101dd600534611562565b90506101f3836101ed8334611584565b8361079c565b505b005b600080fd5b34801561020857600080fd5b5061021c6102173660046115af565b61094c565b60405161022a9291906115ee565b60405180910390f35b6102466102413660046116a5565b6109dc565b6040516001600160a01b03909116815260200161022a565b34801561026a57600080fd5b506102a96102793660046115af565b6002602081905260009182526040909120805460018201549282015460039092015460ff91821693929091169084565b60405161022a9493929190611709565b3480156102c557600080fd5b506102d96102d43660046115af565b610bdd565b60405160ff909116815260200161022a565b3480156102f757600080fd5b506103246103063660046115af565b6001600160a01b031660009081526002602052604090206001015490565b60405190815260200161022a565b34801561033e57600080fd5b5061032460005481565b34801561035457600080fd5b506103686103633660046115af565b610cab565b6040805192835260208301919091520161022a565b34801561038957600080fd5b50600154610246906001600160a01b031681565b3480156103a957600080fd5b506101f56103b83660046115af565b610ce8565b3480156103c957600080fd5b506103dd6103d83660046115af565b610d21565b60405161022a9190611735565b3480156103f657600080fd5b5061041a6104053660046115af565b60046020526000908152604090205460ff1681565b604051901515815260200161022a565b34801561043657600080fd5b506101f56104453660046115af565b610d97565b34801561045657600080fd5b50610246610465366004611782565b6113d1565b34801561047657600080fd5b506102467f000000000000000000000000000000000000000000000000000000000000000081565b3480156104aa57600080fd5b506101f56104b93660046115af565b611409565b6000806001600160a01b038316600090815260026020819052604090912081015460ff16908111156104f2576104f261154c565b146104ff57506000919050565b60008061050b84610cab565b91509150670de0b6b3a76400008210610792576001600160a01b03841660009081526002602081905260409091200180546001919060ff19168280021790555060007f00000000000000000000000000000000000000000000000000000000000000006001600160a01b031663e6a4390586737a250d5630b4cf539739df2c5dacb4c659f2488d6001600160a01b031663ad5c46486040518163ffffffff1660e01b8152600401602060405180830381865afa1580156105cf573d6000803e3d6000fd5b505050506040513d601f19601f820116820180604052508101906105f391906117ae565b6040516001600160e01b031960e085901b1681526001600160a01b03928316600482015291166024820152604401602060405180830381865afa15801561063e573d6000803e3d6000fd5b505050506040513d601f19601f8201168201806040525081019061066291906117ae565b6040516370a0823160e01b81523060048201529091506001600160a01b0382169063a9059cbb9060009083906370a0823190602401602060405180830381865afa1580156106b4573d6000803e3d6000fd5b505050506040513d601f19601f820116820180604052508101906106d891906117cb565b6040516001600160e01b031960e085901b1681526001600160a01b03909216600483015260248201526044016020604051808303816000875af1158015610723573d6000803e3d6000fd5b505050506040513d601f19601f8201168201806040525081019061074791906117e4565b5061075385848461079c565b6040516001600160a01b038616907fd4e33cc44d62fd42ca319b12d301e987973512f0467fbb68713dddaa52fc127890600090a2506001949350505050565b5060009392505050565b81156108a8576000836001600160a01b031663d5f394886040518163ffffffff1660e01b8152600401602060405180830381865afa1580156107e2573d6000803e3d6000fd5b505050506040513d601f19601f8201168201806040525081019061080691906117ae565b6001600160a01b03168360405160006040518083038185875af1925050503d8060008114610850576040519150601f19603f3d011682016040523d82523d6000602084013e610855565b606091505b50509050806108a65760405162461bcd60e51b815260206004820152601960248201527f4661696c656420746f20726566756e64206465706c6f796572000000000000006044820152606401610148565b505b8015610947576001546040516000916001600160a01b03169083908381818185875af1925050503d80600081146108fb576040519150601f19603f3d011682016040523d82523d6000602084013e610900565b606091505b50509050806109455760405162461bcd60e51b815260206004820152601160248201527011985a5b1959081d1bc8199bdc9dd85c99607a1b6044820152606401610148565b505b505050565b6001600160a01b03811660009081526002602081815260408084208151608081018352815460ff908116151582526001830154948201949094528185015486958695929485019291909116908111156109a7576109a761154c565b60028111156109b8576109b861154c565b81526020016003820154815250509050806060015181604001519250925050915091565b6000323314610a175760405162461bcd60e51b81526020600482015260076024820152664e6f7420454f4160c81b6044820152606401610148565b336000610a22611453565b90506000816001600160a01b0316346390657147858989604051602401610a4b93929190611856565b6040516020818303038152906040529060e01b6020820180516001600160e01b038381831617835250505050604051610a849190611896565b60006040518083038185875af1925050503d8060008114610ac1576040519150601f19603f3d011682016040523d82523d6000602084013e610ac6565b606091505b5050905080610b175760405162461bcd60e51b815260206004820152601860248201527f4572726f7220696e697469616c697a696e6720746f6b656e00000000000000006044820152606401610148565b6001600160a01b0382166000908152600260205260408120805460ff191660019081179091559054610b499190611584565b6001600160a01b03808416600081815260026020908152604080832060019081019690965593881680835260038252848320805496870181558352912090930180546001600160a01b0319168217905590517fd5d05a8421149c74fd223cfc823befb883babf9bf0b0e4d6bf9c8fdb70e59bb490610bca908a908a906118b2565b60405180910390a3509150505b92915050565b600080826001600160a01b0316633d3f4eb06040518163ffffffff1660e01b8152600401602060405180830381865afa158015610c1e573d6000803e3d6000fd5b505050506040513d601f19601f82011682018060405250810190610c4291906118e0565b6002811115610c5357610c5361154c565b60ff16905080600003610c695750601492915050565b80600103610c7a5750600592915050565b6001600160a01b03831660009081526002602052604090205460ff16610ca1576001610ca4565b60005b9392505050565b6001600160a01b0381166000908152600260205260408120600301548190610cd4600582611562565b9150610ce08282611584565b925050915091565b6001546001600160a01b03163314610cff57600080fd5b600180546001600160a01b0319166001600160a01b0392909216919091179055565b6001600160a01b038116600090815260036020908152604091829020805483518184028101840190945280845260609392830182828015610d8b57602002820191906000526020600020905b81546001600160a01b03168152600190910190602001808311610d6d575b50505050509050919050565b6001600160a01b03811660009081526002602052604090205460ff161515600114610dd45760405162461bcd60e51b8152600401610148906114fc565b806001600160a01b031663d5f394886040518163ffffffff1660e01b8152600401602060405180830381865afa158015610e12573d6000803e3d6000fd5b505050506040513d601f19601f82011682018060405250810190610e3691906117ae565b6001600160a01b0316336001600160a01b03161480610e6457503360009081526004602052604090205460ff165b610e9f5760405162461bcd60e51b815260206004820152600c60248201526b155b985d5d1a1bdc9a5e995960a21b6044820152606401610148565b6001600160a01b0381166000908152600260208190526040822081015460ff1690811115610ecf57610ecf61154c565b14610ed75750565b610ee0816104be565b15610ee85750565b62015180816001600160a01b03166365cf7c9b6040518163ffffffff1660e01b8152600401602060405180830381865afa158015610f2a573d6000803e3d6000fd5b505050506040513d601f19601f82011682018060405250810190610f4e91906117cb565b610f589042611584565b11610fa55760405162461bcd60e51b815260206004820152601960248201527f546f6b656e206e6f7420726561647920746f20726566756e64000000000000006044820152606401610148565b6001600160a01b03811660009081526002602081905260409091208101805460ff1916600183021790555060007f00000000000000000000000000000000000000000000000000000000000000006001600160a01b031663e6a4390583737a250d5630b4cf539739df2c5dacb4c659f2488d6001600160a01b031663ad5c46486040518163ffffffff1660e01b8152600401602060405180830381865afa158015611054573d6000803e3d6000fd5b505050506040513d601f19601f8201168201806040525081019061107891906117ae565b6040516001600160e01b031960e085901b1681526001600160a01b03928316600482015291166024820152604401602060405180830381865afa1580156110c3573d6000803e3d6000fd5b505050506040513d601f19601f820116820180604052508101906110e791906117ae565b6040516370a0823160e01b81523060048201529091506000906001600160a01b038316906370a0823190602401602060405180830381865afa158015611131573d6000803e3d6000fd5b505050506040513d601f19601f8201168201806040525081019061115591906117cb565b60405163095ea7b360e01b8152737a250d5630b4cf539739df2c5dacb4c659f2488d6004820152602481018290529091506001600160a01b0383169063095ea7b3906044016020604051808303816000875af11580156111b9573d6000803e3d6000fd5b505050506040513d601f19601f820116820180604052508101906111dd91906117e4565b50604051629d473b60e21b81526001600160a01b038416600482015260248101829052600060448201819052606482018190523060848301524260a4830152908190737a250d5630b4cf539739df2c5dacb4c659f2488d906302751cec9060c40160408051808303816000875af115801561125c573d6000803e3d6000fd5b505050506040513d601f19601f820116820180604052508101906112809190611901565b604051630852cd8d60e31b81526004810183905291935091506001600160a01b038616906342966c6890602401600060405180830381600087803b1580156112c757600080fd5b505af11580156112db573d6000803e3d6000fd5b505050506000806112eb87610cab565b91509150600080670de0b6b3a764000085106113305783611314670de0b6b3a764000087611584565b61131e9190611539565b9150670de0b6b3a7640000905061137e565b600061133c8587611539565b9050611350670de0b6b3a7640000826114d9565b9150670de0b6b3a7640000811161136857600061137a565b61137a670de0b6b3a764000082611584565b9250505b611392898261138d8686611539565b61079c565b6040516001600160a01b038a16907f02977011f209407fe8af1ffe4b4a45b806f4db3c525595f0a55c1e7fe17f3f5590600090a2505050505050505050565b600360205281600052604060002081815481106113ed57600080fd5b6000918252602090912001546001600160a01b03169150829050565b6001600160a01b03811660009081526002602052604090205460ff1615156001146114465760405162461bcd60e51b8152600401610148906114fc565b61144f816104be565b5050565b6000805460405181907f0000000000000000000000000000000000000000000000000000000000000000908290611489906114ef565b6001600160a01b03909216825260208201526040018190604051809103906000f59050801580156114be573d6000803e3d6000fd5b5060008054919350806114d083611925565b91905055505090565b60008183106114e85781610ca4565b5090919050565b6101d68061193f83390190565b6020808252600d908201526c2ab735b737bbb7103a37b5b2b760991b604082015260600190565b634e487b7160e01b600052601160045260246000fd5b80820180821115610bd757610bd7611523565b634e487b7160e01b600052602160045260246000fd5b60008261157f57634e487b7160e01b600052601260045260246000fd5b500490565b81810381811115610bd757610bd7611523565b6001600160a01b03811681146115ac57600080fd5b50565b6000602082840312156115c157600080fd5b8135610ca481611597565b600381106115ea57634e487b7160e01b600052602160045260246000fd5b9052565b82815260408101610ca460208301846115cc565b634e487b7160e01b600052604160045260246000fd5b600082601f83011261162957600080fd5b813567ffffffffffffffff8082111561164457611644611602565b604051601f8301601f19908116603f0116810190828211818310171561166c5761166c611602565b8160405283815286602085880101111561168557600080fd5b836020870160208301376000602085830101528094505050505092915050565b600080604083850312156116b857600080fd5b823567ffffffffffffffff808211156116d057600080fd5b6116dc86838701611618565b935060208501359150808211156116f257600080fd5b506116ff85828601611618565b9150509250929050565b8415158152602081018490526080810161172660408301856115cc565b82606083015295945050505050565b6020808252825182820181905260009190848201906040850190845b818110156117765783516001600160a01b031683529284019291840191600101611751565b50909695505050505050565b6000806040838503121561179557600080fd5b82356117a081611597565b946020939093013593505050565b6000602082840312156117c057600080fd5b8151610ca481611597565b6000602082840312156117dd57600080fd5b5051919050565b6000602082840312156117f657600080fd5b81518015158114610ca457600080fd5b60005b83811015611821578181015183820152602001611809565b50506000910152565b60008151808452611842816020860160208601611806565b601f01601f19169290920160200192915050565b6001600160a01b038416815260606020820181905260009061187a9083018561182a565b828103604084015261188c818561182a565b9695505050505050565b600082516118a8818460208701611806565b9190910192915050565b6040815260006118c5604083018561182a565b82810360208401526118d7818561182a565b95945050505050565b6000602082840312156118f257600080fd5b815160038110610ca457600080fd5b6000806040838503121561191457600080fd5b505080516020909101519092909150565b60006001820161193757611937611523565b506001019056fe60c060405234801561001057600080fd5b506040516101d63803806101d683398101604081905261002f91610045565b6001600160a01b0390911660a05260805261007f565b6000806040838503121561005857600080fd5b82516001600160a01b038116811461006f57600080fd5b6020939093015192949293505050565b60805160a05161012e6100a8600039600081816028015260bf01526000607a015261012e6000f3fe60806040526004361060265760003560e01c8063629c52a914606a578063d77177501460af575b7f00000000000000000000000000000000000000000000000000000000000000003660008037600080366000845af43d6000803e8080156065573d6000f35b3d6000fd5b348015607557600080fd5b50609c7f000000000000000000000000000000000000000000000000000000000000000081565b6040519081526020015b60405180910390f35b34801560ba57600080fd5b5060e17f000000000000000000000000000000000000000000000000000000000000000081565b6040516001600160a01b03909116815260200160a656fea26469706673582212200aa83183fbc61f4f7ebe7b20b8b1aad96fe9e0fc03ae084792744c5c07dee1c964736f6c63430008180033a2646970667358221220ffa658d24bfd0273959f82397ed8d8b46529583df20082628906fa1af252954e64736f6c6343000818003360e06040523480156200001157600080fd5b5060405162001d8e38038062001d8e83398101604081905262000034916200014e565b6001600160a01b0381166080526040805163c45a015560e01b81529051737a250d5630b4cf539739df2c5dacb4c659f2488d9163c45a01559160048083019260209291908290030181865afa15801562000092573d6000803e3d6000fd5b505050506040513d601f19601f82011682018060405250810190620000b891906200014e565b6001600160a01b031660c052604080516315ab88c960e31b81529051737a250d5630b4cf539739df2c5dacb4c659f2488d9163ad5c46489160048083019260209291908290030181865afa15801562000115573d6000803e3d6000fd5b505050506040513d601f19601f820116820180604052508101906200013b91906200014e565b6001600160a01b031660a0525062000180565b6000602082840312156200016157600080fd5b81516001600160a01b03811681146200017957600080fd5b9392505050565b60805160a05160c051611b9f620001ef60003960008181610318015261081a0152600081816103cc015281816107f2015281816108ce015281816109750152611446015260008181610486015281816106a901528181610a0e01528181611107015261154a0152611b9f6000f3fe6080604052600436106101445760003560e01c80637e0ec1d1116100b6578063a9059cbb1161006f578063a9059cbb1461039a578063ad5c4648146103ba578063c816841b146103ee578063d5f394881461040e578063dd62ed3e1461042e578063e77772fe1461047457600080fd5b80637e0ec1d1146102dc5780638ae2702f146102f15780638bdb2afa14610306578063906571471461035257806395d89b4114610365578063a457c2d71461037a57600080fd5b8063313ce56711610108578063313ce5671461020457806339509351146102205780633d3f4eb01461024057806342966c681461026e57806365cf7c9b1461029057806370a08231146102a657600080fd5b806306fdde0314610150578063095ea7b31461017b57806318160ddd146101ab5780631cce34ee146101cf57806323b872dd146101e457600080fd5b3661014b57005b600080fd5b34801561015c57600080fd5b506101656104a8565b604051610172919061161c565b60405180910390f35b34801561018757600080fd5b5061019b610196366004611680565b610536565b6040519015158152602001610172565b3480156101b757600080fd5b506101c160025481565b604051908152602001610172565b3480156101db57600080fd5b5061019b61054d565b3480156101f057600080fd5b5061019b6101ff3660046116ac565b610567565b34801561021057600080fd5b5060405160128152602001610172565b34801561022c57600080fd5b5061019b61023b366004611680565b610618565b34801561024c57600080fd5b5060085461026190600160a01b900460ff1681565b6040516101729190611703565b34801561027a57600080fd5b5061028e61028936600461172b565b610654565b005b34801561029c57600080fd5b506101c160065481565b3480156102b257600080fd5b506101c16102c1366004611744565b6001600160a01b031660009081526020819052604090205490565b3480156102e857600080fd5b506101c1610661565b3480156102fd57600080fd5b506101c1610686565b34801561031257600080fd5b5061033a7f000000000000000000000000000000000000000000000000000000000000000081565b6040516001600160a01b039091168152602001610172565b61028e610360366004611804565b61069e565b34801561037157600080fd5b50610165610a8a565b34801561038657600080fd5b5061019b610395366004611680565b610a97565b3480156103a657600080fd5b5061019b6103b5366004611680565b610b30565b3480156103c657600080fd5b5061033a7f000000000000000000000000000000000000000000000000000000000000000081565b3480156103fa57600080fd5b5060085461033a906001600160a01b031681565b34801561041a57600080fd5b5060075461033a906001600160a01b031681565b34801561043a57600080fd5b506101c161044936600461187a565b6001600160a01b03918216600090815260016020908152604080832093909416825291909152205490565b34801561048057600080fd5b5061033a7f000000000000000000000000000000000000000000000000000000000000000081565b600380546104b5906118b3565b80601f01602080910402602001604051908101604052809291908181526020018280546104e1906118b3565b801561052e5780601f106105035761010080835404028352916020019161052e565b820191906000526020600020905b81548152906001019060200180831161051157829003601f168201915b505050505081565b6000610543338484610b3d565b5060015b92915050565b600061012c600654426105609190611903565b1115905090565b6000610574848484610c62565b6001600160a01b0384166000908152600160209081526040808320338452909152902054828110156105fe5760405162461bcd60e51b815260206004820152602860248201527f45524332303a207472616e7366657220616d6f756e74206578636565647320616044820152676c6c6f77616e636560c01b60648201526084015b60405180910390fd5b61060b8533858403610b3d565b60019150505b9392505050565b3360008181526001602090815260408083206001600160a01b0387168452909152812054909161054391859061064f908690611916565b610b3d565b61065e3382610cdc565b50565b6064610679676765c793fa10079d601b1b6003611929565b6106839190611940565b81565b6064610679676765c793fa10079d601b1b6001611929565b336001600160a01b037f000000000000000000000000000000000000000000000000000000000000000016146107055760405162461bcd60e51b815260206004820152600c60248201526b155b985d5d1a1bdc9a5e995960a21b60448201526064016105f5565b34670de0b6b3a76400001461075c5760405162461bcd60e51b815260206004820152601760248201527f57726f6e6720696e697469616c206c697175696469747900000000000000000060448201526064016105f5565b600361076883826119b2565b50600461077582826119b2565b50600780546001600160a01b0319166001600160a01b038516179055426006556107d53060646107b1676765c793fa10079d601b1b6050611929565b6107bb9190611940565b6107d090676765c793fa10079d601b1b611903565b610e22565b6040516364e329cb60e11b81523060048201526001600160a01b037f0000000000000000000000000000000000000000000000000000000000000000811660248301527f0000000000000000000000000000000000000000000000000000000000000000169063c9c65396906044016020604051808303816000875af1158015610863573d6000803e3d6000fd5b505050506040513d601f19601f820116820180604052508101906108879190611a72565b600880546001600160a01b0319166001600160a01b039290921691821790556108cc9060646108c2676765c793fa10079d601b1b6050611929565b6107d09190611940565b7f00000000000000000000000000000000000000000000000000000000000000006001600160a01b031663d0e30db0670de0b6b3a76400006040518263ffffffff1660e01b81526004016000604051808303818588803b15801561092f57600080fd5b505af1158015610943573d6000803e3d6000fd5b505060085460405163a9059cbb60e01b81526001600160a01b039182166004820152670de0b6b3a764000060248201527f0000000000000000000000000000000000000000000000000000000000000000909116935063a9059cbb925060440190506020604051808303816000875af11580156109c4573d6000803e3d6000fd5b505050506040513d601f19601f820116820180604052508101906109e89190611a8f565b6109f4576109f4611ab1565b6008546040516335313c2160e11b81526001600160a01b037f00000000000000000000000000000000000000000000000000000000000000008116600483015290911690636a627842906024016020604051808303816000875af1158015610a60573d6000803e3d6000fd5b505050506040513d601f19601f82011682018060405250810190610a849190611ac7565b50505050565b600480546104b5906118b3565b3360009081526001602090815260408083206001600160a01b038616845290915281205482811015610b195760405162461bcd60e51b815260206004820152602560248201527f45524332303a2064656372656173656420616c6c6f77616e63652062656c6f77604482015264207a65726f60d81b60648201526084016105f5565b610b263385858403610b3d565b5060019392505050565b6000610543338484610c62565b6001600160a01b038316610b9f5760405162461bcd60e51b8152602060048201526024808201527f45524332303a20617070726f76652066726f6d20746865207a65726f206164646044820152637265737360e01b60648201526084016105f5565b6001600160a01b038216610c005760405162461bcd60e51b815260206004820152602260248201527f45524332303a20617070726f766520746f20746865207a65726f206164647265604482015261737360f01b60648201526084016105f5565b6001600160a01b0383811660008181526001602090815260408083209487168084529482529182902085905590518481527f8c5be1e5ebec7d5bd14f71427d1e84f3dd0314c0f7b2291e5b200ac8c7c3b92591015b60405180910390a3505050565b60055460ff1615610c7d57610c78838383610f01565b505050565b6000610c8a8484846110d0565b90508015610caa57610c9d843083610f01565b610ca78183611903565b91505b6008546001600160a01b0390811690841603610cc957610cc98261138e565b610cd4848484610f01565b610a84611539565b6001600160a01b038216610d3c5760405162461bcd60e51b815260206004820152602160248201527f45524332303a206275726e2066726f6d20746865207a65726f206164647265736044820152607360f81b60648201526084016105f5565b6001600160a01b03821660009081526020819052604090205481811015610db05760405162461bcd60e51b815260206004820152602260248201527f45524332303a206275726e20616d6f756e7420657863656564732062616c616e604482015261636560f01b60648201526084016105f5565b6001600160a01b0383166000908152602081905260408120838303905560028054849290610ddf908490611903565b90915550506040518281526000906001600160a01b038516907fddf252ad1be2c89b69c2b068fc378daa952ba7f163c4a11628f55a4df523b3ef90602001610c55565b6001600160a01b038216610e785760405162461bcd60e51b815260206004820152601f60248201527f45524332303a206d696e7420746f20746865207a65726f20616464726573730060448201526064016105f5565b8060026000828254610e8a9190611916565b90915550506001600160a01b03821660009081526020819052604081208054839290610eb7908490611916565b90915550506040518181526001600160a01b038316906000907fddf252ad1be2c89b69c2b068fc378daa952ba7f163c4a11628f55a4df523b3ef9060200160405180910390a35050565b6001600160a01b038316610f655760405162461bcd60e51b815260206004820152602560248201527f45524332303a207472616e736665722066726f6d20746865207a65726f206164604482015264647265737360d81b60648201526084016105f5565b6001600160a01b038216610fc75760405162461bcd60e51b815260206004820152602360248201527f45524332303a207472616e7366657220746f20746865207a65726f206164647260448201526265737360e81b60648201526084016105f5565b6001600160a01b0383166000908152602081905260409020548181101561103f5760405162461bcd60e51b815260206004820152602660248201527f45524332303a207472616e7366657220616d6f756e7420657863656564732062604482015265616c616e636560d01b60648201526084016105f5565b6001600160a01b03808516600090815260208190526040808220858503905591851681529081208054849290611076908490611916565b92505081905550826001600160a01b0316846001600160a01b03167fddf252ad1be2c89b69c2b068fc378daa952ba7f163c4a11628f55a4df523b3ef846040516110c291815260200190565b60405180910390a350505050565b6008546000906001600160a01b038581169116148015906110ff57506008546001600160a01b03848116911614155b8061113b57507f00000000000000000000000000000000000000000000000000000000000000006001600160a01b0316836001600160a01b0316145b8061114e57506001600160a01b03841630145b8061117557506001600160a01b038316737a250d5630b4cf539739df2c5dacb4c659f2488d145b1561118257506000610611565b61118a61054d565b80156111a357506008546001600160a01b038581169116145b156112ab5760646111c0676765c793fa10079d601b1b6001611929565b6111ca9190611940565b8211156112115760405162461bcd60e51b815260206004820152601560248201527413585e081d1e08185b5bdd5b9d081c995858da1959605a1b60448201526064016105f5565b6064611229676765c793fa10079d601b1b6003611929565b6112339190611940565b82611253856001600160a01b031660009081526020819052604090205490565b61125d9190611916565b11156112ab5760405162461bcd60e51b815260206004820152601960248201527f4d61782077616c6c657420616d6f756e7420726561636865640000000000000060448201526064016105f5565b6002600854600160a01b900460ff1660028111156112cb576112cb6116ed565b036112d857506000610611565b6001600854600160a01b900460ff1660028111156112f8576112f86116ed565b0361134e57606460025461130c9190611940565b306000908152602081905260409020541161133c57506008805460ff60a01b1916600160a11b1790556000610611565b611347601483611940565b9050610611565b61012c6006544261135f9190611903565b1115611383576008805460ff60a01b1916600160a01b179055611347601483611940565b611347600583611940565b6005805460ff1916600117905560006113d76113c8836113c3306001600160a01b031660009081526020819052604090205490565b611606565b60646002546113c39190611940565b9050670de0b6b3a76400008110156113ef575061152c565b604080516002808252606082018352600092602083019080368337019050509050308160008151811061142457611424611ae0565b60200260200101906001600160a01b031690816001600160a01b0316815250507f00000000000000000000000000000000000000000000000000000000000000008160018151811061147857611478611ae0565b60200260200101906001600160a01b031690816001600160a01b0316815250506114b730737a250d5630b4cf539739df2c5dacb4c659f2488d84610b3d565b60405163791ac94760e01b8152737a250d5630b4cf539739df2c5dacb4c659f2488d9063791ac947906114f7908590600090869030904290600401611af6565b600060405180830381600087803b15801561151157600080fd5b505af1158015611525573d6000803e3d6000fd5b5050505050505b506005805460ff19169055565b4760008190036115465750565b60007f00000000000000000000000000000000000000000000000000000000000000006001600160a01b03168260405160006040518083038185875af1925050503d80600081146115b3576040519150601f19603f3d011682016040523d82523d6000602084013e6115b8565b606091505b50509050806116025760405162461bcd60e51b81526020600482015260166024820152754661696c656420746f20666f7277617264206665657360501b60448201526064016105f5565b5050565b60008183106116155781610611565b5090919050565b60006020808352835180602085015260005b8181101561164a5785810183015185820160400152820161162e565b506000604082860101526040601f19601f8301168501019250505092915050565b6001600160a01b038116811461065e57600080fd5b6000806040838503121561169357600080fd5b823561169e8161166b565b946020939093013593505050565b6000806000606084860312156116c157600080fd5b83356116cc8161166b565b925060208401356116dc8161166b565b929592945050506040919091013590565b634e487b7160e01b600052602160045260246000fd5b602081016003831061172557634e487b7160e01b600052602160045260246000fd5b91905290565b60006020828403121561173d57600080fd5b5035919050565b60006020828403121561175657600080fd5b81356106118161166b565b634e487b7160e01b600052604160045260246000fd5b600082601f83011261178857600080fd5b813567ffffffffffffffff808211156117a3576117a3611761565b604051601f8301601f19908116603f011681019082821181831017156117cb576117cb611761565b816040528381528660208588010111156117e457600080fd5b836020870160208301376000602085830101528094505050505092915050565b60008060006060848603121561181957600080fd5b83356118248161166b565b9250602084013567ffffffffffffffff8082111561184157600080fd5b61184d87838801611777565b9350604086013591508082111561186357600080fd5b5061187086828701611777565b9150509250925092565b6000806040838503121561188d57600080fd5b82356118988161166b565b915060208301356118a88161166b565b809150509250929050565b600181811c908216806118c757607f821691505b6020821081036118e757634e487b7160e01b600052602260045260246000fd5b50919050565b634e487b7160e01b600052601160045260246000fd5b81810381811115610547576105476118ed565b80820180821115610547576105476118ed565b8082028115828204841417610547576105476118ed565b60008261195d57634e487b7160e01b600052601260045260246000fd5b500490565b601f821115610c78576000816000526020600020601f850160051c8101602086101561198b5750805b601f850160051c820191505b818110156119aa57828155600101611997565b505050505050565b815167ffffffffffffffff8111156119cc576119cc611761565b6119e0816119da84546118b3565b84611962565b602080601f831160018114611a1557600084156119fd5750858301515b600019600386901b1c1916600185901b1785556119aa565b600085815260208120601f198616915b82811015611a4457888601518255948401946001909101908401611a25565b5085821015611a625787850151600019600388901b60f8161c191681555b5050505050600190811b01905550565b600060208284031215611a8457600080fd5b81516106118161166b565b600060208284031215611aa157600080fd5b8151801515811461061157600080fd5b634e487b7160e01b600052600160045260246000fd5b600060208284031215611ad957600080fd5b5051919050565b634e487b7160e01b600052603260045260246000fd5b600060a08201878352602087602085015260a0604085015281875180845260c08601915060208901935060005b81811015611b485784516001600160a01b031683529383019391830191600101611b23565b50506001600160a01b0396909616606085015250505060800152939250505056fea26469706673582212203edff8b824375d803e7a760070fa238f9dfeee297357fcf7f1d98f9b22732eee64736f6c63430008180033",
    "linkReferences": {}
  },
  "methodIdentifiers": {
    "childTokens(address)": "200952b1",
    "deployToken(string,string)": "1d12b938",
    "externalTryBurn(address)": "f0685ef4",
    "getChildTokenFees(address)": "2c078476",
    "getTokenData(address)": "13ff7e9f",
    "getTokenFees(address)": "65436cd8",
    "getTokenUniqueId(address)": "52c3e349",
    "getTokensDeployed(address)": "7df32647",
    "protocolFeesRecipient()": "68930637",
    "setProtocolFeesRecipient(address)": "7a72f06f",
    "tokenLogic()": "d7717750",
    "tokensDeployed(address,uint256)": "ca441933",
    "uniqueId()": "629c52a9",
    "withdrawLiquidity(address)": "9d67ac37",
    "withdrawalAddresses(address)": "7e051867"
  },
  "id": 23
}